S00B00006C63642E73726563E6
S11300000C9434000C9451000C9451000C94510045
S11300100C9451000C9451000C9451000C94510018
S11300200C9451000C9421010C9451000C94510037
S11300300C9451000C9451000C9451000C945100F8
S11300400C9451000C9451000C9451000C945100E8
S11300500C9451000C9451000C9451000C945100D8
S11300600C9451000C94510011241FBECFEFD8E022
S1130070DEBFCDBF11E0A0E0B1E0ECE9F4E002C0E6
S113008005900D92A031B107D9F721E0A0E1B1E0CC
S113009001C01D92A731B207E1F70E94FA000C9447
S11300A04C020C940000299A85E08A95F1F700002F
S11300B029980895CF93C82F662311F0289A01C078
S11300C02898549A559A569A579A5F985E985D98CC
S11300D05C98CC230CF45F9AC6FD5E9AC5FD5D9ACC
S11300E0C4FD5C9A0E9453005F985E985D985C988A
S11300F0C3FD5F9AC2FD5E9AC1FD5D9AC0FD5C9A24
S11301000E9453005C9A5D9A5E9A5F9A87EB9BE02B
S11301100197F1F700C00000CF91089560E00E94BC
S11301205A00089561E00E945A000895611104C0C4
S113013080580E948E00089580540E948E00089575
S113014081E00E948E00089561E00E945A000895A3
S1130150CF93DF93EC012196FC018081882329F061
S11301600E94A40089918111FBCFDF91CF91089562
S1130170CF93C82F209A559A219A549A559A569AF1
S1130180579A8FEF99EF0197F1F700C000005D9A3D
S11301905C9A0E9453008FE19EE40197F1F700C03E
S11301A000000E9453008FEF90E00197F1F700C028
S11301B000000E9453008FEF90E00197F1F700C018
S11301C000005C980E9453008FEF90E00197F1F7D4
S11301D000C0000088E20E948E0088E00E948E0029
S11301E00E94A00086E00E948E008C2F0E948E0048
S11301F0CF9108958CE00E94B80080E40E948E00A4
S1130200C0E0D1E008E011E089910E949200C0179B
S1130210D107D1F780E80E948E0060E081E00E945F
S1130220960088E091E00E94A800E1EBF0E0808174
S113023087608083E0E7F0E0808181608083789448
S1130240FFCF1F920F920FB60F9211241F932F937B
S11302503F934F935F936F937F938F939F93AF934A
S1130260BF93EF93FF93CF93DF9300D0CDB7DEB767
S113027080E290E29A838983809116018F5F8630B1
S113028018F480931601BDC01092160180911501D7
S11302908F5F80931501809114018F5F8093140107
S11302A08B3020F01092140180E002C08A3038F4C0
S11302B061E00E94960080E00E94A40011C01092A8
S11302C0140161E080E00E94960011E01F5F61E08C
S11302D0812F0E94960084E10E94A4001A30B1F795
S11302E0809115018A3038F0109215018091130124
S11302F08F5F80931301809113018C3370F01092FF
S11303001301809112018F5F8093120160E084E0F9
S11303100E94960080E30E94A400809115014AE0A7
S1130320BE016F5F7F4F90E00E94170260E087E09C
S11303300E949600CE0101960E94A80080911301AC
S1130340889FC001112490931101809310014AE009
S1130350BE016F5F7F4F0E94170280911001909140
S113036011010A9728F060E08BE00E94960004C017
S113037060E08CE00E949600CE0101960E94A800E5
S1130380809113014AE0BE016F5F7F4F90E00E94AD
S11303901702809113018A3028F060E084E00E9403
S11303A0960004C060E085E00E949600CE010196AC
S11303B00E94A800809112018C3348F0109212011F
S11303C060E081E00E94960080E30E94A400809196
S11303D012014AE0BE016F5F7F4F90E00E94170256
S11303E0809112018A3028F060E081E00E9496003A
S11303F004C060E082E00E949600CE0101960E9453
S1130400A8000F900F90DF91CF91FF91EF91BF91D2
S1130410AF919F918F917F916F915F914F913F9198
S11304202F911F910F900FBE0F901F901895BB270F
S11304304A3031F4992322F4BDE2909581959F4F7F
S11304400C942302BB27FB015527AA27880F991F69
S1130450AA1FA41710F0A41B83955051B9F7A05DEF
S1130460AA3308F0A95DA193009779F7B111B1936C
S11304701192CB010C943C02DC01FC01672F7191B9
S11304807723E1F7329704C07C916D937083629176
S10F0490AE17BF07C8F30895F894FFCF1F
S113049C1F1F1F1F1F1F1F1F30303A30302E3000FC
S9030000FC
