S01400006B6E696768742072696465722E7372656355
S11300000C9434000C943E000C943E000C943E007E
S11300100C943E000C943E000C943E000C943E0064
S11300200C943E000C943E000C943E000C943E0054
S11300300C943E000C943E000C943E000C943E0044
S11300400C943E000C943E000C943E000C943E0034
S11300500C943E000C943E000C943E000C943E0024
S11300600C943E000C943E0011241FBECFEFD8E048
S1130070DEBFCDBF0E9440000C946B000C940000C6
S11300808FE187B921E090E128B988B1803179F016
S11300903FEF49E688E1315040408040E1F700C03D
S11300A0000088B1880F88B988B1803189F798B980
S11300B085B1813049F33FEF49E688E13150404052
S11300C08040E1F700C0000088B1869588B985B109
S10D00D0813089F7D9CFF894FFCFEF
S9030000FC
